:020000040800F2
:10000000780A0020990700080508000893270008CF
:1000100005080008050800080508000800000000A1
:1000200000000000000000000000000005080008BB
:100030000508000800000000050800080508000881
:10004000050800080508000805080008050800085C
:10005000050800080508000805080008050800084C
:10006000050800080508000805080008B103000895
:10007000050800080508000805080008050800082C
:10008000050800080508000805080008050800081C
:10009000050800080508000805080008050800080C
:1000A00005080008050800080508000805080008FC
:1000B00005080008050800080508000805080008EC
:1000C00005080008050800080508000805080008DC
:1000D00005080008110D00080508000805080008BB
:1000E00005080008050800080508000805080008BC
:1000F000050800080508000805080008A503000811
:10010000050800080508000805080008BD030008E8
:10011000050800080508000805080008050800088B
:10012000050800080508000805080008050800087B
:10013000050800080508000805080008050800086B
:10014000050800080508000805080008050800085B
:10015000050800080508000805080008050800084B
:10016000050800080508000805080008050800083B
:10017000050800080508000805080008050800082B
:10018000050800080508000880B582B000AF786057
:1001900040F26413C2F200031A7811467B68D8B2A9
:1001A00040F25413C2F20003585402F10103DAB2D0
:1001B00040F26413C2F200031A7040F26413C2F2F8
:1001C00000031B781A4640F25413C2F200034FF0AA
:1001D0000001995440F26413C2F200031B7803F14A
:1001E00001030F2B05D87B680A2B02D07B68002BFC
:1001F00014D140F26413C2F200034FF000021A70EF
:1002000040F25413C2F200034FF0040019464FF0BD
:10021000000202F0B3FA0346002B00BF07F1080703
:10022000BD4680BD80B500AF40F21403C2F20003AA
:100230001A6840F22003C2F200031B6810461946F8
:1002400002F044FB0346002B00F0AB8040F20403B5
:10025000C2F200031B68002B00F0818000BF40F257
:100260001403C2F200031B68184602F013FB034696
:10027000002BF4D140F21403C2F200031A6840F2DA
:100280002003C2F200031B681046194602F062FB0D
:1002900040F28813C2F200031B681A4640F2C813EA
:1002A000C2F200039A6040F20403C2F200031A682B
:1002B0004FF6FF739A4228BF1A4640F2C813C2F2A3
:1002C00000031A6140F21403C2F200031B681846CF
:1002D00040F2C811C2F2000102F068FA40F21403C1
:1002E000C2F200031B6818464FF0010102F0B6FA93
:1002F00040F28813C2F200031A6840F20403C2F20B
:10030000000319684FF6FF73994238BF0B464FEA56
:100310004303D21840F28813C2F200031A6040F27D
:100320000403C2F200031A6840F20403C2F200039D
:1003300019684FF6FF73994238BF0B46D21A40F244
:100340000403C2F200031A6040F21403C2F2000375
:100350001B6818464FF0010102F080FA21E040F2DC
:100360001403C2F200031B6818464FF0000102F0AC
:1003700075FA40F21403C2F200031A6840F2200337
:10038000C2F200031B681046194602F0E3FA40F27D
:100390008813C2F200031B6818464FF0000102F0F8
:1003A0000BFB80BD80B500AFFFF73CFF80BD00BFF9
:1003B00080B500AFFFF736FF80BD00BF80B500AF4E
:1003C0004FF47050C4F200004FF0020102F0CAFB7B
:1003D0000346002B18D040F20C03C2F200031B6846
:1003E000022B07D102F0F2FA03464FF0040019463F
:1003F00000F0B6F902F0EAFA03464FF47050C4F286
:100400000000194602F0A0FB80BD00BF80B58AB095
:1004100000AF786039604FF000037B624FF000035B
:100420003B624FF00003FB614FF00003BB617B6850
:100430001B8A9BB27B627B6A23F440537B623B68DE
:10044000DB887A6A13437B627B6A9AB27B681A8282
:100450007B689B899BB27B627B6A23F4B05323F059
:100460000C037B623B689A883B681B8913439AB2F2
:100470003B685B8913439BB27A6A13437B627B6A56
:100480009AB27B689A817B689B8A9BB27B627B6A0B
:1004900023F440737B623B689B897A6A13437B62D7
:1004A0007B6A9AB27B689A8207F10803184601F0CA
:1004B000D9FA7A684FF48053C4F201039A4206D005
:1004C0007A684FF4A053C4F201039A4202D17B69C7
:1004D0003B6201E03B693B627B689B899BB29BB2BC
:1004E0001BB2002B0FDA3A6A13464FEA83039B18BC
:1004F0004FEA83029A183B681B684FEA4303B2FB3A
:10050000F3F3FB610EE03A6A13464FEA83039B184C
:100510004FEA83029A183B681B684FEA8303B2FBD9
:10052000F3F3FB61FA6948F21F53C5F2EB13A3FB27
:1005300002134FEA53134FEA03137B627B6A4FEABD
:1005400013134FF0640202FB03F3FA69D31ABB6181
:100550007B689B899BB29BB21BB2002B12DABB69F2
:100560004FEAC30303F1320248F21F53C5F2EB1303
:10057000A3FB02134FEA531303F007037A6A1343F2
:100580007B6211E0BB694FEA031303F1320248F2C8
:100590001F53C5F2EB13A3FB02134FEA531303F0EF
:1005A0000F037A6A13437B627B6A9AB27B681A8173
:1005B00007F12807BD4680BD80B483B000AF7860E6
:1005C0000B46FB70FB78002B08D07B689B899BB2A5
:1005D00043F400539AB27B689A8107E07B689B8959
:1005E0009BB223F400539AB27B689A8107F10C07FF
:1005F000BD4680BC704700BF80B487B000AF786054
:1006000013460A467A807B704FF000033B614FF03F
:100610000003FB604FF00003BB604FF000037B6101
:100620007B687B617B88DBB24FEA5313DBB23B61B3
:100630007B8803F01F03FB60FB684FF0010202FAA6
:1006400003F3BB603B69012B04D17B6903F10C030D
:100650007B610BE03B69022B04D17B6903F1100342
:100660007B6103E07B6903F114037B617B78002BE2
:1006700006D07B697A691168BA680A431A6007E094
:100680007B697A691168BA686FEA02020A401A60E7
:1006900007F11C07BD4680BC704700BF80B487B01F
:1006A00000AF78600B467B804FF00003FB604FF09B
:1006B00000037B614FF00003BB604FF00003FB744D
:1006C0007B88DBB24FEA5313DBB2BB607B8803F05D
:1006D0001F037B617B694FF0010202FA03F37B6128
:1006E000BB68012B06D17B689B899BB27A6913405A
:1006F0007B610FE0BB68022B06D17B681B8A9BB233
:100700007A6913407B6105E07B689B8A9BB27A69BA
:1007100013407B617B884FEA13239BB2FB60FB682D
:100720004FF0010202FA03F3FB607B681B889BB267
:10073000FA681340FB607B69002B06D0FB68002B36
:1007400003D04FF00103FB7402E04FF00003FB7491
:10075000FB7C184607F11C07BD4680BC704700BFF4
:1007600080B485B000AF78600B467B804FF000030B
:10077000FB604FF4E843C4F20003FB60FA687B6857
:10078000D31803F10803FB60FB687A881A6007F14D
:100790001407BD4680BC704780B582B000AF43F6F9
:1007A0004053C0F600037B6040F20003C2F2000336
:1007B0003B600BE07B681A683B681A603B6803F19A
:1007C00004033B607B6803F104037B603A6840F2FA
:1007D0005413C2F200039A42ECD3084808494FF080
:1007E00000028842B8BF40F8042BFFF6FAAF00F0D1
:1007F0000DF807F10807BD4680BD00005401002038
:100800007802002080B400AFFEE700BF80B582B060
:1008100000AF4FF001033B714FF00003FB714FF04D
:100820000003BB714FF000037B710BE0BA7940F21B
:100830002C23C2F200034FF000019954BB7903F15D
:100840000103BB71BB79132BF0D940F27413C2F2D0
:1008500000034FF000021A7040F27413C2F200035A
:100860004FF000025A7040F27413C2F200034FF0CE
:1008700000029A7040F27413C2F200034FF00002BB
:10088000DA7001F0CBF800F067F900F073F900F0CE
:1008900081FE00F0BFFD4FF0640000F0CDFE4FF090
:1008A000640000F0DDFFF4E04FF0010000F00CF90F
:1008B00003469BB24FF00100194600F009FE4FF0CD
:1008C000020000F001F903469BB24FF00200194606
:1008D00000F0FEFD4FF0030000F0F6F803469BB277
:1008E0004FF00300194600F0F3FD4FF0040000F054
:1008F000EBF803469BB24FF00400194600F0E8FD08
:1009000040F25820C2F200004FF029014FF00602D9
:1009100002F04CFA40F25823C2F200031B78194649
:1009200040F25823C2F200039B781A4640F2582343
:10093000C2F200031B7943F60C50C0F6000001F030
:10094000A7FDFB7903F00103DBB2FA7902F10102A2
:10095000FA71002B07D04FF44063C4F202034FF446
:1009600080521A8306E04FF44063C4F202034FF44E
:1009700080525A834FF44063C4F202034FF40042A2
:100980005A834FF00003C4F202031B6903F40043CF
:10099000002B14D04FF44063C4F202034FF4005212
:1009A0001A8340F27913C2F200031B781A4640F210
:1009B0002C23C2F200034FF00101995413E04FF4CD
:1009C0004063C4F202034FF400525A8340F2791399
:1009D000C2F200031B781A4640F22C23C2F2000335
:1009E0004FF00001995440F27913C2F200031B78D2
:1009F00003F10103DAB240F27913C2F200031A7074
:100A000040F27913C2F200031B78142B06D940F28E
:100A10007913C2F200034FF000021A704FF0000386
:100A20007B714FF00003BB710CE0BA7940F22C23CC
:100A3000C2F200039A5C7B79D3187B71BB7903F116
:100A40000103BB71BB79132BEFD97B79132B0ED824
:100A500040F27A13C2F200031B78002B15D040F24B
:100A60007A13C2F200034FF000021A700DE040F258
:100A70007A13C2F200031B78002B06D140F27A13DE
:100A8000C2F200034FF001021A704FF47A7000F0C6
:100A90006BFD3B79002B7FF407AF4FF44050C4F25D
:100AA00001004FF0000102F021F84FF48050C4F231
:100AB00001004FF00001FFF77FFD4FF000031846E3
:100AC00007F10807BD4680BD90B585B000AF7860DE
:100AD00040F23403C2F200031B78002B02D04FF027
:100AE0001E032FE01A4BFB601A48F96803F04CF81C
:100AF0000346BB607B6803F1FF3240F27413C2F21D
:100B000000039B5C5BB203F11B03184602F034FF49
:100B1000044640F26E13C2F200031B78184602F03E
:100B200027FF03461846B96803F02EF8034620460F
:100B3000194602F06DFE0346184603F0C1F803465D
:100B4000DBB25BB2184607F11407BD4690BD00BF8B
:100B5000000004420000C84280B500AF00F036FC3F
:100B600042F2F03000F052F880BD00BF80B400AF18
:100B7000FEE700BF80B500AF40F22023C2F20003C1
:100B80004FF040021A7040F22023C2F200034FF0EF
:100B900000025A7040F22023C2F200034FF0070215
:100BA0009A7040F22023C2F200034FF00002DA7084
:100BB00040F22023C2F200034FF000021A7140F20B
:100BC0002020C2F2000002F05FF84FF01E0000F09B
:100BD000CBFC40F22823C2F200034FF020021A702F
:100BE00040F22823C2F200034FF001025A7040F293
:100BF0002823C2F200034FF00C029A7040F2282022
:100C0000C2F2000002F06AF880BD00BF80B58AB071
:100C100000AF78604FF010004FF0010101F05CF878
:100C20004FF002004FF0010101F002F84FF0C00355
:100C30003B624FF0020387F824304FF0020387F83D
:100C400025304FF0000387F826304FF0000387F877
:100C500027304FF48060C4F2020007F120031946E8
:100C600001F07AFC4FF48060C4F202004FF00601FC
:100C70004FF0070201F02EFD4FF48060C4F2020035
:100C80004FF007014FF0070201F024FD7B683B6144
:100C90004FF00003BB824FF00003FB824FF00003D4
:100CA0003B834FF00003BB834FF00C037B834FF477
:100CB0008050C4F2010007F110031946FFF7A6FBAC
:100CC0004FF48050C4F2010040F225514FF0010270
:100CD000FFF792FC4FF025033B734FF000037B734B
:100CE0004FF00003BB734FF00103FB7307F10C03DC
:100CF000184601F057FF4FF48050C4F201004FF046
:100D00000101FFF759FC07F12807BD4680BD00BF70
:100D100080B582B000AF4FF48050C4F2010040F2C1
:100D20002551FFF7BBFC0346002B00F04A8340F23D
:100D30003403C2F200034FF000021A704FF48053E4
:100D4000C4F201039B889BB2FB71FB796E2B39D0F7
:100D500040F28613C2F200031B78132B32D840F204
:100D60008613C2F200031B781A4640F26023C2F2D7
:100D70000003F979995440F28613C2F200031B78FC
:100D800003F00103DBB2002B07D04FF44063C4F241
:100D900002034FF400421A8306E04FF44063C4F2AA
:100DA00002034FF400425A8340F28613C2F200035A
:100DB0001B7803F10103DAB240F28613C2F200039A
:100DC0001A70FEE240F28613C2F200031B78052B74
:100DD00040F07E8140F28613C2F200031B78A3F13B
:100DE000050240F26023C2F200039B5CDBB24C2B95
:100DF00040F0AF8040F28613C2F200031B78A3F1EB
:100E0000040240F26023C2F200039B5CDBB2582B69
:100E100047D140F28613C2F200031B78A3F103020C
:100E200040F26023C2F200039B5CDBB21A464FEA39
:100E30008202D3181A464FEA82011A460B46D3188B
:100E40004FEA8303DAB240F28613C2F200031B7842
:100E5000A3F1020140F26023C2F200035B5CDBB24B
:100E600019464FEA8101CB184FEA4303DBB2D3188E
:100E7000DAB240F28613C2F200031B7803F1FF31AD
:100E800040F26023C2F200035B5CDBB2D318DBB23A
:100E900003F13003DAB240F26D13C2F200031A70AC
:100EA00088E240F28613C2F200031B78A3F1040229
:100EB00040F26023C2F200039B5CDBB2592B40F08E
:100EC000798240F28613C2F200031B78A3F1030279
:100ED00040F26023C2F200039B5CDBB21A464FEA89
:100EE0008202D3181A464FEA82011A460B46D318DB
:100EF0004FEA8303DAB240F28613C2F200031B7892
:100F0000A3F1020140F26023C2F200035B5CDBB29A
:100F100019464FEA8101CB184FEA4303DBB2D318DD
:100F2000DAB240F28613C2F200031B7803F1FF31FC
:100F300040F26023C2F200035B5CDBB2D318DBB289
:100F400003F13003DAB240F26E13C2F200031A70FA
:100F500030E240F28613C2F200031B78A3F10502CF
:100F600040F26023C2F200039B5CDBB2522B40F0E4
:100F7000218240F28613C2F200031B78A3F104021F
:100F800040F26023C2F200039B5CDBB2582B47D1D6
:100F900040F28613C2F200031B78A3F1030240F271
:100FA0006023C2F200039B5CDBB21A464FEA820266
:100FB000D3181A464FEA82011A460B46D3184FEA55
:100FC0008303DAB240F28613C2F200031B78A3F166
:100FD000020140F26023C2F200035B5CDBB21946FF
:100FE0004FEA8101CB184FEA4303DBB2D318DAB2E0
:100FF00040F28613C2F200031B7803F1FF3140F286
:101000006023C2F200035B5CDBB2D318DBB203F1F6
:101010003003DAB240F26F13C2F200031A70C9E172
:1010200040F28613C2F200031B78A3F1040240F2DF
:101030006023C2F200039B5CDBB2592B40F0BA8103
:1010400040F28613C2F200031B78A3F1030240F2C0
:101050006023C2F200039B5CDBB21A464FEA8202B5
:10106000D3181A464FEA82011A460B46D3184FEAA4
:101070008303DAB240F28613C2F200031B78A3F1B5
:10108000020140F26023C2F200035B5CDBB219464E
:101090004FEA8101CB184FEA4303DBB2D318DAB22F
:1010A00040F28613C2F200031B7803F1FF3140F2D5
:1010B0006023C2F200035B5CDBB2D318DBB203F146
:1010C0003003DAB240F27013C2F200031A7071E119
:1010D00040F28613C2F200031B7803F1FF3240F2A4
:1010E0006023C2F200034FF05301995440F286137B
:1010F000C2F200031B78112B40F0298140F28613C5
:10110000C2F200031B78A3F10F0240F26023C2F287
:1011100000039B5CDBB21A464FEA8202D3184FEA07
:101120004303DAB240F28613C2F200031B78A3F144
:101130000E0140F26023C2F200035B5CDBB2D31805
:10114000DBB2A3F11003DBB2DAB240F27413C2F2E5
:1011500000031A7040F28613C2F200031B78A3F159
:101160000B0240F26023C2F200039B5CDBB21A4622
:101170004FEA8202D3184FEA4303DAB240F28613F1
:10118000C2F200031B78A3F10A0140F26023C2F20D
:1011900000035B5CDBB2D318DBB2A3F11003DBB25C
:1011A000DAB240F27413C2F200035A7040F28613AE
:1011B000C2F200031B78A3F1070240F26023C2F2DF
:1011C00000039B5CDBB21A464FEA8202D3184FEA57
:1011D0004303DAB240F28613C2F200031B78A3F194
:1011E000060140F26023C2F200035B5CDBB2D3185D
:1011F000DBB2A3F11003DBB2DAB240F27413C2F235
:1012000000039A7040F28613C2F200031B78A3F128
:10121000030240F26023C2F200039B5CDBB21A4679
:101220004FEA8202D3184FEA4303DAB240F2861340
:10123000C2F200031B78A3F1020140F26023C2F264
:1012400000035B5CDBB2D318DBB2A3F11003DBB2AB
:10125000DAB240F27413C2F20003DA7040F286137D
:10126000C2F200031B78A3F1100240F26023C2F225
:1012700000039B5CDBB24E2B0ED140F27413C2F222
:1012800000031B78DBB2C3F10003DBB2DAB240F239
:101290007413C2F200031A7040F28613C2F2000304
:1012A0001B78A3F10C0240F26023C2F200039B5CA6
:1012B000DBB24E2B0ED140F27413C2F200035B7806
:1012C000DBB2C3F10003DBB2DAB240F27413C2F254
:1012D00000035A7040F28613C2F200031B78A3F198
:1012E000080240F26023C2F200039B5CDBB24E2B8B
:1012F0000ED140F27413C2F200039B78DBB2C3F14B
:101300000003DBB2DAB240F27413C2F200039A7047
:1013100040F28613C2F200031B78A3F1040240F2EC
:101320006023C2F200039B5CDBB24E2B42D140F241
:101330007413C2F20003DB78DBB2C3F10003DBB24B
:10134000DAB240F27413C2F20003DA7032E040F213
:101350008613C2F200031B7803F1FF3240F26023D0
:10136000C2F200039B5CDBB2432B0AD1FB79312B29
:1013700007D140F26C13C2F200034FF001021A7061
:1013800018E040F28613C2F200031B7803F1FF322B
:1013900040F26023C2F200039B5CDBB2432B09D115
:1013A000FB79302B06D140F26C13C2F200034FF0F0
:1013B00000021A7040F28613C2F200034FF00002DE
:1013C0001A7007F10807BD4680BD00BF80B582B026
:1013D00000AF4FF001004FF0010100F029FC4FF485
:1013E00000433B604FF000033B714FF00003BB71C3
:1013F0004FF00203FB714FF002037B714FF00000CE
:10140000C4F202003B46194601F0A6F807F10807AE
:10141000BD4680BD80B582B000AF4FF002004FF0F6
:10142000010100F02FFC4FF006004FF0010100F029
:10143000FFFB4FF0C0033B604FF002033B714FF0E6
:1014400003037B714FF00003BB714FF00103FB718D
:101450004FF40060C4F202003B46194601F07CF8EC
:101460004FF003033B604FF48060C4F202003B4640
:10147000194601F071F84FF40060C4F202004FF019
:1014800006014FF0020201F025F94FF40060C4F2AA
:1014900002004FF007014FF0020201F01BF94FF478
:1014A0008060C4F202004FF000014FF0020201F030
:1014B00011F94FF48060C4F202004FF001014FF0C7
:1014C000020201F007F907F10807BD4680BD00BF21
:1014D00080B483B000AF02460B46FA80BB80FB8825
:1014E000012B0CD14FF48063C4F20003BA885A6315
:1014F0004FF00003C4F20103BA885A632EE0FB8860
:10150000022B0CD14FF48063C4F20003BA889A63B3
:101510004FF00003C4F20103BA889A631EE0FB880F
:10152000032B0CD14FF48063C4F20003BA88DA6352
:101530004FF00003C4F20103BA88DA630EE0FB88BF
:10154000042B0BD14FF48063C4F20003BA881A64F1
:101550004FF00003C4F20103BA881A6407F10C07C4
:10156000BD4680BC704700BF80B483B000AF7860D8
:1015700000BF7B68002B0CBF00220122D2B203F116
:10158000FF337B60002AF4D107F10C07BD4680BC15
:10159000704700BF80B582B000AF4FF010004FF031
:1015A000010100F045FB4FF001004FF0010100F098
:1015B00093FB4FF4D4433B604FF002033B714FF079
:1015C00003037B714FF00003BB714FF00003FB710D
:1015D0004FF48050C4F202003B46194600F0BCFFB5
:1015E0004FF48050C4F202004FF009014FF00102A5
:1015F00001F070F84FF48050C4F202004FF00B017C
:101600004FF0010201F066F84FF48050C4F202007E
:101610004FF00D014FF0010201F05CF84FF48050E3
:10162000C4F202004FF00E014FF0010201F052F837
:1016300007F10807BD4680BD80B584B000AF786073
:101640004FF00003FB8140F23C13C2F200031A6822
:1016500044F6D353C1F26203A3FB02134FEAD32330
:101660009BB203F1FF33FB8140F21423C2F200036B
:10167000FA891A8040F21423C2F200034FF00002EC
:101680005A807A6840F21423C2F200035A6040F292
:101690001423C2F200034FF000021A8140F2142317
:1016A000C2F200034FF000029A724FF00000C4F241
:1016B000010040F21421C2F2000101F00FFD40F2DE
:1016C0004023C2F200034FF070021A8040F2402320
:1016D000C2F200034FF001025A8040F24023C2F2EE
:1016E00000034FF004029A8040F24023C2F200034C
:1016F0004FF000029A6040F24023C2F200034FF024
:1017000002029A8140F24023C2F200034FF0080225
:10171000DA8140F24023C2F200034FF480721A8251
:1017200040F24023C2F200034FF000025A824FF011
:101730000000C4F2010040F24021C2F2000101F0B9
:1017400087FD40F28013C2F200031B881A4640F264
:101750004023C2F200039A604FF00000C4F201007F
:1017600040F24021C2F2000101F0F0FD40F282138C
:10177000C2F200031B881A4640F24023C2F2000363
:101780009A604FF00000C4F2010040F24021C2F222
:10179000000101F06FFE40F28413C2F200031B88C7
:1017A0001A4640F24023C2F200039A604FF0000054
:1017B000C4F2010040F24021C2F2000101F0EAFE51
:1017C00040F20423C2F200034FF400621A8040F298
:1017D0000423C2F200034FF480625A8040F20423D3
:1017E000C2F200034FF480729A8040F20423C2F2E6
:1017F00000034FF00B02DA8040F20423C2F2000330
:101800004FF480521A8140F20423C2F200034FF4D5
:1018100000525A8140F20423C2F200034FF4804286
:101820009A814FF00000C4F2010040F20421C2F29C
:10183000000101F097FF4FF00000C4F201004FF0EB
:10184000010101F0E5FC4FF00000C4F201004FF08F
:10185000010101F0AFFF07F11007BD4680BD00BFD9
:1018600080B584B000AF78604FF00003FB8140F298
:101870003C13C2F200031A6844F6D353C1F2620368
:10188000A3FB02134FEA13339BB203F1FF33FB8137
:101890007A6840F21423C2F200035A6040F2142323
:1018A000C2F20003FA891A8040F21423C2F2000344
:1018B0004FF000021A8140F21423C2F200034FF0ED
:1018C00000025A804FF48060C4F2000040F21421FC
:1018D000C2F2000101F002FC40F24023C2F2000318
:1018E0004FF060021A8040F24023C2F200034FF032
:1018F00001025A8040F24023C2F200034FF000027E
:101900009A6040F24023C2F200034FF000029A8135
:101910004FF48060C4F2000040F24021C2F20001A6
:1019200001F096FC4FF48060C4F200004FF0080113
:1019300001F0A0FE40F24023C2F200034FF001028A
:101940005A8040F24023C2F200034FF000029A6036
:101950004FF48060C4F2000040F24021C2F2000166
:1019600001F0F4FC4FF48060C4F200004FF0080175
:1019700001F09CFE40F24023C2F200034FF001024E
:101980005A8040F24023C2F200034FF000029A60F6
:101990004FF48060C4F2000040F24021C2F2000126
:1019A00001F068FD4FF48060C4F200004FF00801C0
:1019B00001F09CFE40F24023C2F200034FF001020E
:1019C0005A8040F24023C2F200034FF000029A60B6
:1019D0004FF48060C4F2000040F24021C2F20001E6
:1019E00001F0D8FD4FF48060C4F200004FF0080110
:1019F00001F098FE4FF48060C4F200004FF0010146
:101A000001F0E6FB4FF48060C4F200004FF00101EA
:101A100001F0FEFB07F11007BD4680BD80B582B026
:101A200000AF4FF008004FF0010100F001F94FF452
:101A300070433B604FF001033B714FF002037B7139
:101A40004FF00003BB714FF00003FB714FF4406097
:101A5000C4F202003B46194600F07EFD07F108077C
:101A6000BD4680BD80B489B000AF78604FF0000300
:101A7000BB614FF000037B614FF00003FB614FF04F
:101A800002033B614FF00003FB604FF00203BB60B9
:101A90004FF46053C4F202039B6803F00C03BB6174
:101AA000BB69042B0AD0082B0FD0002B60D17A68B9
:101AB0004FF41053C0F2F403136060E07A6847F605
:101AC0004003C0F27D13136059E04FF46053C4F239
:101AD00002035B6803F480034FEA9353FB604FF407
:101AE0006053C4F202035B6803F03F03BB60FB6812
:101AF000002B14D047F64003C0F27D13BA68B3FB45
:101B0000F2F24FF46053C4F20203596847F6C0730F
:101B10000B404FEA931303FB02F3FB6113E04FF416
:101B20001053C0F2F403BA68B3FBF2F24FF46053FF
:101B3000C4F20203596847F6C0730B404FEA93138F
:101B400003FB02F3FB614FF46053C4F202035B68D2
:101B500003F440334FEA134303F101034FEA430315
:101B60003B61FA693B69B2FBF3F27B681A6006E0FD
:101B70007A684FF41053C0F2F403136000BF4FF4BF
:101B80006053C4F202039B6803F0F003BB61BB69BE
:101B90004FEA1313BB6140F23803C2F20003BA6983
:101BA0009B181B78DBB27B617B681A687B6922FA21
:101BB00003F27B685A604FF46053C4F202039B68DF
:101BC00003F4E053BB61BB694FEA9323BB6140F26E
:101BD0003803C2F20003BA699B181B78DBB27B6141
:101BE0007B685A687B6922FA03F27B689A604FF43B
:101BF0006053C4F202039B6803F46043BB61BB699A
:101C00004FEA5333BB6140F23803C2F20003BA69B2
:101C10009B181B78DBB27B617B685A687B6922FA70
:101C200003F27B68DA6007F12407BD4680BC704789
:101C300080B483B000AF78600B46FB70FB78002B5C
:101C40000CD04FF46053C4F202034FF46052C4F25C
:101C50000202116B7A680A431A630DE04FF4605375
:101C6000C4F202034FF46052C4F20202116B7A68AC
:101C70006FEA02020A401A6307F10C07BD4680BCF6
:101C8000704700BF80B483B000AF78600B46FB7034
:101C9000FB78002B0CD04FF46053C4F202034FF4D6
:101CA0006052C4F20202116C7A680A431A640DE0B1
:101CB0004FF46053C4F202034FF46052C4F20202C4
:101CC000116C7A686FEA02020A401A6407F10C0785
:101CD000BD4680BC704700BF80B483B000AF786061
:101CE0000B46FB70FB78002B0CD04FF46053C4F212
:101CF00002034FF46052C4F20202516C7A680A4344
:101D00005A640DE04FF46053C4F202034FF4605282
:101D1000C4F20202516C7A686FEA02020A405A6405
:101D200007F10C07BD4680BC704700BF80B483B08C
:101D300000AF78600B46FB70FB78002B0CD04FF4A3
:101D40006053C4F202034FF46052C4F20202116AFB
:101D50007A680A431A620DE04FF46053C4F202033A
:101D60004FF46052C4F20202116A7A686FEA02020A
:101D70000A401A6207F10C07BD4680BC704700BFDD
:101D800080B483B000AF78600B46FB70FB78002B0B
:101D90000CD04FF46053C4F202034FF46052C4F20B
:101DA0000202516A7A680A435A620DE04FF46053A6
:101DB000C4F202034FF46052C4F20202516A7A681C
:101DC0006FEA02020A405A6207F10C07BD4680BC66
:101DD000704700BF80B582B000AF0346FB71FB794E
:101DE0001846FEF7D1F907F10807BD4680BD00BFD0
:101DF00080B483B000AF78600B46FB707B68FA78E4
:101E00001A704FF00103184607F10C07BD4680BC5D
:101E1000704700BF80B485B000AF786039604FF084
:101E20000003FB600FE03B681A787B681A707B68E0
:101E300003F101037B603B6803F101033B60FB6836
:101E400003F10103FB603B681B78002BEBD1FB68BF
:101E5000184607F11407BD4680BC704780B586B0B0
:101E600000AFF8607A603B600B46FB724FF00003F6
:101E70007B617B6803F1FF337B603B68092B25D9CD
:101E80003A684CF6CD43CCF6CC43A3FB02134FEAA1
:101E9000D303FA7AF86811467A68FFF7DFFF7861B2
:101EA0007B69FA68D318FB6013E0FB7AF86819467F
:101EB000FFF79EFFFB6803F10103FB607B6903F101
:101EC00001037B617B6803F1FF337B607B68002B40
:101ED000EBDC39684CF6CD43CCF6CC43A3FB0123B5
:101EE0004FEAD30213464FEA83039B184FEA43039A
:101EF000CA1AD3B203F13003DBB2F8681946FFF710
:101F000077FF03467A69D3187B617B69184607F12E
:101F10001807BD4680BD00BF80B586B000AFF86031
:101F20007A603B600B46FB724FF000037B613B68BD
:101F3000002B04DA3B68C3F100033B6101E03B681E
:101F40003B617B6803F1FF337B603B69092B2AD936
:101F50003B68002B12DA3A694CF6CD43CCF6CC4301
:101F6000A3FB02134FEAD303C3F10003FA7AF86824
:101F700011467A68FFF7D0FF78610FE03A694CF6B6
:101F8000CD43CCF6CC43A3FB02134FEAD303FA7A3A
:101F9000F86811467A68FFF7BFFF78617B69FA68D5
:101FA000D318FB602BE03B68002B15DA7B6803F14C
:101FB000FF337B6010E0FB7AF8681946FFF718FFE3
:101FC000FB6803F10103FB607B6903F101037B61A3
:101FD0007B6803F1FF337B607B68002BEBDC3B68A5
:101FE000002B0CDAF8684FF02D01FFF701FF0346D4
:101FF0007A69D3187B61FB6803F10103FB603969DF
:102000004CF6CD43CCF6CC43A3FB01234FEAD302DD
:1020100013464FEA83039B184FEA4303CA1AD3B20D
:1020200003F13003DBB2F8681946FFF7E1FE03461F
:102030007A69D3187B617B69184607F11807BD469A
:1020400080BD00BF80B588B002AFF8607A600A46F4
:10205000FA72BB724FF000037B617B6803F1FF33C0
:102060007B603B6A4FEA1313002B24D03B6A4FEA94
:102070001311FA7ABB7A0091F86811467A68FFF773
:10208000E1FF03467A69D3187B617B69FA68D3184C
:10209000FB6013E0FB7AF8681946FFF7A9FEFB68BE
:1020A00003F10103FB607B6903F101037B617B6842
:1020B00003F1FF337B607B68002BEBDC3B6A03F0B2
:1020C0000F03092B0CD83B6ADBB203F00F03DBB222
:1020D00003F13003DBB2F8681946FFF789FE1BE015
:1020E000BB7A002B0CD03B6ADBB203F00F03DBB2F0
:1020F00003F13703DBB2F8681946FFF779FE0BE00E
:102100003B6ADBB203F00F03DBB203F15703DBB230
:10211000F8681946FFF76CFE7B6903F101037B61E8
:102120007B69184607F11807BD4680BD80B58AB0A7
:1021300002AFF860B9607A603B604FF00003BB61AA
:102140004FF000037B61FB68002B00F01C81FB68F3
:102150004FF000021A7016E17B681B78252B10D017
:102160007B681A78FB681A70FB6803F10103FB6057
:102170007B6803F101037B607B6903F101037B61F1
:1021800002E17B6803F101031B78252B10D1FB686A
:102190004FF025021A70FB6803F10103FB607B68B6
:1021A00003F102037B607B6903F101037B61EBE0D8
:1021B0004FF02003FB774FF00003BB777B6803F100
:1021C00001037B607B681B78302B1BD14FF0300301
:1021D000FB777B6803F101037B6013E0BB7F1A464A
:1021E0004FEA8202D3184FEA4303DAB27B681B78C6
:1021F000D318DBB2A3F13003BB777B6803F1010393
:102200007B6000E000BF7B681B782F2B03D97B68C5
:102210001B78392BE2D9BA7F7B69D3181A46BB6881
:102220009A4205D9BB68DAB27B69DBB2D31ABB77B5
:102230007B681B78A3F15803202B00F2948001A245
:1022400052F823F0192300086723000867230008C9
:102250006723000867230008672300086723000836
:102260006723000867230008672300086723000826
:102270004F230008C92200086723000867230008CD
:102280006723000867230008C922000867230008A5
:1022900067230008672300086723000867230008F6
:1022A00067230008672300086723000867230008E6
:1022B0003923000867230008E1220008672300088B
:1022C00067230008F9220008BA7F3B6803F1040184
:1022D00039601B68F97FF868FFF71EFEB86145E0BA
:1022E000BA7F3B6803F1040139601B68F97FF86825
:1022F000FFF7B4FDB86139E0BA7F3B6803F1040130
:1023000039601968FB7F0091F86819464FF00003A7
:10231000FFF798FEB86129E0BA7F3B6803F104013A
:1023200039601968FB7F0091F86819464FF0010386
:10233000FFF788FEB86119E03B6803F104023A60D8
:102340001B68F8681946FFF765FDB8610EE03B6849
:1023500003F104023A601B68DBB2F8681946FFF724
:1023600047FDB86102E04FF0FF332CE07B6803F1DA
:1023700001037B60BB69FA68D318FB607A69BB69AB
:10238000D3187B6100E000BF7B681B78002B04D072
:102390007A69BB689A42FFF4DFAE7A69BB689A42F9
:1023A00004D2FB684FF000021A700BE0FB6803F1E7
:1023B000FF33FB60FB684FF000021A707B6903F18A
:1023C000FF337B617B69184607F12007BD4680BD5E
:1023D00080B584B000AFF860B9607A60F8684FF0FB
:1023E0006401BA687B68FFF7A1FE0346184607F14F
:1023F0001007BD4680BD00BFB0B5A6B000AFF86005
:10240000B9607A6043F61C53C0F6000307F110046C
:102410001D460FCD0FC40FCD0FC42B68236007F1ED
:1024200034031846B9687A68FFF7D2FF0346632B76
:102430000CDD40F23813C2F200031B68DB6807F1C1
:1024400010021046194600F05FF8FEE707F134036A
:102450001846F96800F058F80346184607F198073F
:10246000BD46B0BD80B582B000AF7860396040F243
:102470003813C2F200031B689B68184679683A68F3
:10248000FFF7BAFF0346184607F10807BD4680BDAF
:102490000FB480B582B000AF07F114033B60386918
:1024A0003968FFF7DFFF78607B68184607F1080797
:1024B000BD46BDE8804004B0704700BF80B582B023
:1024C00000AF7860396040F23813C2F200031B6835
:1024D0009A683B689A4208D040F23813C2F200036F
:1024E0001B68DA683B689A4206D17B68DBB2184603
:1024F000FFF770FC7B6801E04FF0FF33184607F1EF
:102500000807BD4680BD00BF80B584B000AF7860CD
:1025100039604FF00003FB6014E07B681B781846BD
:102520003968FFF7CBFF0346B3F1FF3F02D14FF00D
:10253000FF330CE0FB6803F10103FB607B6803F1F0
:1025400001037B607B681B78002BE6D1FB68184693
:1025500007F11007BD4680BD80B487B000AF78603A
:1025600039604FF000037B614FF000033B614FF097
:102570000003FB604FF000037B6186E07B694FF056
:10258000010202FA03F33B613B681A683B6913409E
:10259000FB60FA683B699A4273D17B681A687B6971
:1025A0004FEA43034FF0030101FA03F36FEA030319
:1025B0001A407B681A607B681A683B681B79194669
:1025C0007B694FEA430301FA03F31A437B681A60FD
:1025D0003B681B79012B03D03B681B79022B34D15C
:1025E0007B689A687B694FEA43034FF0030101FA65
:1025F00003F36FEA03031A407B689A607B689A686A
:102600003B685B7919467B694FEA430301FA03F3A0
:102610001A437B689A607B685A687B699BB24FF06B
:10262000010101FA03F36FEA03031A407B685A6061
:102630007B685A683B689B7919467B699BB201FAB3
:1026400003F39BB21A437B685A607B68DA687B6944
:102650009BB24FEA43034FF0030101FA03F36FEA21
:1026600003031A407B68DA607B68DA683B68DB79D1
:1026700019467B694FEA430301FA03F31A437B6867
:10268000DA607B6903F101037B617B690F2B7FF6C5
:1026900075AF07F11C07BD4680BC704780B483B09E
:1026A00000AF78600B467B807B687A881A8307F1DD
:1026B0000C07BD4680BC704780B483B000AF786023
:1026C0000B467B807B687A885A8307F10C07BD46EE
:1026D00080BC704780B485B000AF786013460A466E
:1026E0007A807B704FF00003FB604FF00003BB600B
:1026F0007A787B8803F007034FEA830302FA03F337
:10270000FB607B884FEAD3039BB21A467B884FEA73
:10271000D3039BB219467B6801F1080153F82110DD
:102720007B8803F007034FEA83034FF00F0000FAA2
:1027300003F36FEA030319407B6802F1080243F8D0
:1027400022107B884FEAD3039BB21A467B6802F1C2
:10275000080253F82220FB681343BB607B884FEAD2
:10276000D3039BB21A467B6802F10802B96843F8AA
:10277000221007F11407BD4680BC7047ABBE00F0C5
:1027800002B800207047002A00F00180106001208C
:10279000704706980188044A914240F00380043053
:1027A00006907047FEE70000ABBE000080B485B025
:1027B00000AF786039604FF00003FB607B681B68F6
:1027C000FB60FA6848F23F03CFF21C031340FB6042
:1027D0003B681A683B68DB681A433B685B691A43CD
:1027E0003B689B691A433B68DB691A433B681B6A79
:1027F0001A433B685B6A1A433B689B6A1A433B680F
:102800005B6B1A433B689B6B1343FA681343FB6093
:102810007B68FA681A607B685B69FB60FB6823F081
:102820000703FB603B68DA6A3B681B6B1343FA687B
:102830001343FB607B68FA685A613B681A697B68DE
:102840005A603B685A687B689A603B689A687B6804
:10285000DA6007F11407BD4680BC704780B483B0CE
:1028600000AF78600B46FB70FB78002B06D07B68CE
:102870001B6843F001027B681A6005E07B681B68F7
:1028800023F001027B681A6007F10C07BD4680BC8B
:10289000704700BF80B485B000AF78604FF0000390
:1028A000FB737B681B6803F00103DBB2002B03D0D2
:1028B0004FF00103FB7302E04FF00003FB73FB7B5F
:1028C000184607F11407BD4680BC704780B487B036
:1028D00000AF786039604FF00003FB754FF00003E4
:1028E000FB607A6846F20F43C4F202039A4205D8AD
:1028F0004FF4C043C4F202033B6104E04FF4C84309
:10290000C4F202033B613B6803F00053002B03D089
:102910003B695B68FB6002E03B691B68FB60FA682F
:1029200040F67D73C0F67D731340FB60FA683B6828
:102930001340002B03D04FF00103FB7502E04FF072
:102940000003FB75FB7D184607F11C07BD4680BCE4
:10295000704700BF80B485B000AF786039607A6896
:1029600046F20F43C4F202039A4205D84FF4C04323
:10297000C4F20203FB6004E04FF4C843C4F2020354
:10298000FB603B6803F00053002B08D03A6840F628
:102990007D73C0F67D731340FA68D36007E03A6830
:1029A00040F67D73C0F67D731340FA68936007F1BB
:1029B0001407BD4680BC704780B483B000AF786018
:1029C000396007F10C07BD4680BC704780B400AF8A
:1029D0004FF000031846BD4680BC704780B582B0FA
:1029E00000AF78607A684FF44053C4F201039A4212
:1029F0000CD14FF480504FF00101FFF7C1F94FF4B3
:102A000080504FF00001FFF7BBF926E07A684FF4E1
:102A10006053C4F200039A420CD14FF480404FF04F
:102A20000101FFF783F94FF480404FF00001FFF7F9
:102A30007DF912E07A684FF47053C4F200039A42B1
:102A40000BD14FF400404FF00101FFF76FF94FF445
:102A500000404FF00001FFF769F907F10807BD4694
:102A600080BD00BF80B485B000AF786039604FF0A2
:102A70000003FB817B681B88FB81FB8903F44153C6
:102A8000FB813B681A883B685B8813439AB23B68BA
:102A90009B8813439AB23B68DB8813439AB23B6826
:102AA0001B8913439AB23B685B8913439AB23B6814
:102AB0009B8913439AB23B68DB8913439AB2FB8923
:102AC0001343FB817B68FA891A807B689B8B9BB2DE
:102AD00023F400639AB27B689A833B681A8A7B6806
:102AE0001A8207F11407BD4680BC704780B483B0DA
:102AF00000AF78600B46FB70FB78002B08D07B683A
:102B00001B889BB243F040039AB27B681A8007E0AF
:102B10007B681B889BB223F040039AB27B681A80C3
:102B200007F10C07BD4680BC704700BF80B483B07E
:102B300000AF78607B689B899BB2184607F10C0751
:102B4000BD4680BC704700BF80B483B000AF7860E2
:102B50000B467B807B687A889A8107F10C07BD461B
:102B600080BC704780B485B000AF78600B467B8036
:102B70004FF00003FB737B681B899AB27B8813407C
:102B80009BB2002B03D04FF00103FB7302E04FF028
:102B90000003FB73FB7B184607F11407BD4680BC9E
:102BA000704700BF80B485B000AF78604FF000037D
:102BB000FB734FF00003BB734FF00F037B737B6815
:102BC000DB78002B45D04FF46D43CEF20003DB6879
:102BD0006FEA030303F4E0634FEA1323FB73FB7B09
:102BE000C3F10403BB737A7BFB7B42FA03F37B7371
:102BF0007B685B781A46BB7B02FA03F3FB737B6846
:102C00009A787B7B1340DAB2FB7B1343FB73FB7B2D
:102C10004FEA0313FB734FF46143CEF200037A686B
:102C200012789B18FA7B83F800234FF46143CEF2AD
:102C300000037A6812784FEA5212D2B279680978A2
:102C400001F01F014FF0010000FA01F143F82210DA
:102C500014E04FF46143CEF200037A6812784FEA31
:102C60005212D2B27968097801F01F014FF00100C9
:102C700000FA01F102F1200243F8221007F11407D3
:102C8000BD4680BC704700BF80B584B000AF78609F
:102C90004FF00003FB7300F0C9F87B685A787B683B
:102CA0001B781343DAB27B68DB781343DAB27B68B4
:102CB0001B791343DAB27B689B781343DBB2FB7357
:102CC00007F10F0318464FF020014FF0010200F00A
:102CD00035F807F11007BD4680BD00BF80B584B050
:102CE00000AF78604FF00003FB7307F10F03184645
:102CF0004FF021014FF0010200F058F8FB7B23F068
:102D00002F03DBB2FB737B681A787B685B78134315
:102D1000DAB27B689B781343DAB2FB7B1343DBB2F6
:102D2000FB7307F10F0318464FF021014FF001022A
:102D300000F004F807F11007BD4680BD80B582B0F1
:102D400000AF786013460A46FA703B803B88012B3F
:102D500003D9FB7843F04003FB704FF48050C4F27A
:102D600002004FF00801FFF7A7FCFB78184600F0BF
:102D700043F90CE07B681B78184600F03DF93B886E
:102D800003F1FF333B807B6803F101037B603B88E9
:102D9000002BEFD14FF48050C4F202004FF0080135
:102DA000FFF77CFC07F10807BD4680BD80B582B007
:102DB00000AF786013460A46FA703B803B88012BCF
:102DC00004D9FB7863F03F03FB7003E0FB7863F00A
:102DD0007F03FB704FF48050C4F202004FF00801F3
:102DE000FFF76AFCFB78184600F006F90FE04FF099
:102DF000000000F001F903461A467B681A703B8810
:102E000003F1FF333B807B6803F101037B603B8868
:102E1000002BECD14FF48050C4F202004FF00801B7
:102E2000FFF73CFC07F10807BD4680BD80B588B0C0
:102E300000AF4FF480504FF00101FEF74DFF4FF00F
:102E400001004FF00101FEF7F3FE4FF010004FF0CC
:102E50000101FEF7EDFE4FF010004FF00101FEF70B
:102E6000E7FE4FF010004FF00101FEF7E1FE4FF0DA
:102E70000000C4F202004FF005014FF00502FFF719
:102E800029FC4FF00000C4F202004FF006014FF0A1
:102E90000502FFF71FFC4FF00000C4F202004FF0E4
:102EA00007014FF00502FFF715FC4FF002033B77D7
:102EB0004FF00003BB774FF00203FB774FF00203A4
:102EC0007B774FF02003BB614FF00000C4F202009B
:102ED00007F118031946FFF73FFB4FF08003BB6172
:102EE0004FF00000C4F2020007F118031946FFF783
:102EF00033FB4FF04003BB614FF00000C4F202000F
:102F000007F118031946FFF727FB4FF44050C4F2AE
:102F10000100FFF763FD4FF00003BB804FF000039B
:102F20003B814FF000037B814FF00003BB814FF4E6
:102F30000073FB814FF008033B824FF000037B825C
:102F40004FF00703BB824FF48273FB804FF4405075
:102F5000C4F2010007F104031946FFF783FD4FF4A3
:102F60004050C4F201004FF00101FFF7BFFD4FF0E8
:102F70000803BB614FF001033B774FF00003BB77C1
:102F80004FF002037B774FF48050C4F2020007F148
:102F900018031946FFF7E0FA4FF48050C4F202001C
:102FA0004FF00801FFF77AFB4FF00103BB614FF0D0
:102FB00000033B774FF00003BB774FF002037B77B2
:102FC0004FF00003FB774FF48050C4F2020007F18A
:102FD00018031946FFF7C0FA4FF00203BB614FF424
:102FE0008050C4F2020007F118031946FFF7B4FA43
:102FF00007F12007BD4680BD80B582B000AF034613
:10300000FB7140F25013C2F200034FF480521A6079
:1030100017E040F25013C2F200031B68002B14BFEC
:1030200000220122D2B203F1FF3140F25013C2F26A
:1030300000031960002A04D0FDF798FD0346DBB2B7
:1030400046E04FF44050C4F201004FF00201FFF798
:1030500089FD0346002BDCD0FB799BB24FF4405036
:10306000C4F201001946FFF76FFD40F25013C2F29F
:1030700000034FF480521A6017E040F25013C2F27E
:1030800000031B68002B14BF00220122D2B203F1FF
:10309000FF3140F25013C2F200031960002A04D03D
:1030A000FDF764FD0346DBB212E04FF44050C4F27A
:1030B00001004FF00101FFF755FD0346002BDCD066
:1030C0004FF44050C4F20100FFF730FD0346DBB27D
:1030D000184607F10807BD4680BD00BF80B485B023
:1030E00000AF786039604FF00003FB817B681B887C
:1030F000FB817A684FF00003C4F201039A421FD0AB
:103100007A684FF48063C4F201039A4218D07B6856
:10311000B3F1804F14D07A684FF48063C4F2000397
:103120009A420DD07A684FF40063C4F200039A42C9
:1031300006D07A684FF44063C4F200039A4208D183
:10314000FB8923F07003FB813B685A88FB8913439A
:10315000FB817A684FF48053C4F200039A420FD087
:103160007A684FF4A053C4F200039A4208D0FB8956
:1031700023F44073FB813B681A89FB891343FB816D
:103180007B68FA891A803B685A687B68DA623B6818
:103190001A887B681A857A684FF00003C4F201032D
:1031A0009A4206D07A684FF48063C4F201039A42CF
:1031B00004D13B689B7A1A467B681A867B684FF07D
:1031C00001029A8207F11407BD4680BC704700BF18
:1031D00080B483B000AF78600B46FB70FB78002BA7
:1031E00008D07B681B889BB243F080039AB27B684F
:1031F0001A8007E07B681B889BB223F080039AB299
:103200007B681A8007F10C07BD4680BC704700BF81
:1032100080B483B000AF78600B46FB70FB78002B66
:1032200008D07B681B889BB243F001039AB27B688D
:103230001A8007E07B681B889BB223F001039AB2D7
:103240007B681A8007F10C07BD4680BC704700BF41
:1032500080B485B000AF786039604FF000037B81A7
:103260004FF00003FB814FF00003BB817B681B8C98
:103270009BB223F001039AB27B681A847B681B8C93
:10328000FB817B689B88BB817B681B8B7B817B89F7
:1032900023F070037B817B8923F003037B813B68F0
:1032A0001A887B8913437B81FB8923F00203FB810E
:1032B0003B689A89FB891343FB813B685A88FB89E9
:1032C0001343FB817A684FF00003C4F201039A4272
:1032D00006D07A684FF48063C4F201039A4223D186
:1032E000FB8923F00803FB813B68DA89FB891343E0
:1032F000FB81FB8923F00403FB813B689A88FB89EF
:103300001343FB81BB8923F48073BB81BB8923F406
:103310000073BB813B681A8ABB891343BB813B683E
:103320005A8ABB891343BB817B68BA899A807B68C0
:103330007A891A833B689A687B685A637B68FA8942
:103340001A8407F11407BD4680BC704780B485B06D
:1033500000AF786039604FF000037B814FF00003CD
:10336000FB814FF00003BB817B681B8C9BB223F079
:1033700010039AB27B681A847B681B8CFB817B6884
:103380009B88BB817B681B8B7B817B8923F4E0431B
:103390007B817B8923F440737B813B681B884FEAE8
:1033A00003239AB27B8913437B81FB8923F020039B
:1033B000FB813B689B894FEA03139AB2FB89134355
:1033C000FB813B685B884FEA03139AB2FB89134386
:1033D000FB817A684FF00003C4F201039A4206D0E1
:1033E0007A684FF48063C4F201039A422FD1FB89BB
:1033F00023F08003FB813B68DB894FEA03139AB219
:10340000FB891343FB81FB8923F04003FB813B686D
:103410009B884FEA03139AB2FB891343FB81BB8954
:1034200023F48063BB81BB8923F40063BB813B68C9
:103430001B8A4FEA83039AB2BB891343BB813B6863
:103440005B8A4FEA83039AB2BB891343BB817B68D3
:10345000BA899A807B687A891A833B689A687B6804
:103460009A637B68FA891A8407F11407BD4680BC09
:10347000704700BF80B485B000AF786039604FF00E
:1034800000037B814FF00003FB814FF00003BB8101
:103490007B681B8C9BB223F480739AB27B681A847E
:1034A0007B681B8CFB817B689B88BB817B689B8BCB
:1034B0007B817B8923F070037B817B8923F003036D
:1034C0007B813B681A887B8913437B81FB8923F4CA
:1034D0000073FB813B689B894FEA03239AB2FB8907
:1034E0001343FB813B685B884FEA03239AB2FB8955
:1034F0001343FB817A684FF00003C4F201039A4240
:1035000006D07A684FF48063C4F201039A422FD147
:10351000FB8923F40063FB813B68DB894FEA0323CB
:103520009AB2FB891343FB81FB8923F48063FB81FF
:103530003B689B884FEA03239AB2FB891343FB81C4
:10354000BB8923F48053BB81BB8923F40053BB8127
:103550003B681B8A4FEA03139AB2BB891343BB81B2
:103560003B685B8A4FEA03139AB2BB891343BB8162
:103570007B68BA899A807B687A899A833B689A6863
:103580007B68DA637B68FA891A8407F11407BD4601
:1035900080BC704780B485B000AF786039604FF070
:1035A0000003BB814FF000037B814FF00003FB81E0
:1035B0007B681B8C9BB223F480539AB27B681A847D
:1035C0007B681B8C7B817B689B88FB817B689B8BEA
:1035D000BB81BB8923F4E043BB81BB8923F44073E7
:1035E000BB813B681B884FEA03239AB2BB89134314
:1035F000BB817B8923F400537B813B689B894FEA25
:1036000003339AB27B8913437B813B685B884FEA23
:1036100003339AB27B8913437B817A684FF00003AE
:10362000C4F201039A4206D07A684FF48063C4F270
:1036300001039A420BD1FB8923F48043FB813B6851
:103640001B8A4FEA83139AB2FB891343FB817B6881
:10365000FA899A807B68BA899A833B689A687B6802
:103660001A647B687A891A8407F11407BD4680BC06
:10367000704700BF80B485B000AF78600B467B8098
:103680004FF00003FB817B681B8BFB81FB8923F0E0
:103690000803FB81FA897B881343FB817B68FA89E5
:1036A0001A8307F11407BD4680BC704780B485B00B
:1036B00000AF78600B467B804FF00003FB817B6896
:1036C0001B8BFB81FB8923F40063FB817B884FEA22
:1036D00003239AB2FB891343FB817B68FA891A831F
:1036E00007F11407BD4680BC704700BF80B485B0A9
:1036F00000AF78600B467B804FF00003FB817B6856
:103700009B8BFB81FB8923F00803FB81FA897B8873
:103710001343FB817B68FA899A8307F11407BD463E
:1037200080BC704780B485B000AF78600B467B806A
:103730004FF00003FB817B689B8BFB81FB8923F4AB
:103740000063FB817B884FEA03239AB2FB89134312
:10375000FB817B68FA899A8307F11407BD4680BC18
:10376000704700BF80B483B000AF786039603B68B9
:103770001A883B685B8813439AB23B689B88134363
:103780009AB23B68DB8813439AB23B681B891343A8
:103790009AB23B685B8913439AB23B689B89134397
:1037A0009AB27B68A3F8442007F10C07BD4680BCA1
:1037B000704700BF80B483B000AF78600B46FB70E9
:1037C000FB78002B0CD07B68B3F844309BB26FEAD7
:1037D00043436FEA53439AB27B68A3F844200BE05B
:1037E0007B68B3F844309BB24FEA43434FEA5343FC
:1037F0009AB27B68A3F8442007F10C07BD4680BC51
:10380000704700BF80F0004002E000BF81F000413F
:1038100042001FBF5FEA410392EA030F7FEA226C76
:103820007FEA236C6AD04FEA1262D2EB1363C1BF06
:10383000D218414048404140B8BF5B42192B88BF75
:10384000704710F0004F40F4000020F07F4018BF98
:10385000404211F0004F41F4000121F07F4118BFB8
:10386000494292EA030F3FD0A2F1010241FA03FC60
:1038700010EB0C00C3F1200301FA03F100F0004348
:1038800002D5494260EB4000B0F5000F13D3B0F110
:10389000807F06D340084FEA310102F10102FE2A7F
:1038A00051D2B1F1004F40EBC25008BF20F00100EF
:1038B00040EA03007047490040EB000010F4000F9D
:1038C000A2F10102EDD1B0FA80FCACF1080CB2EB30
:1038D0000C0200FA0CF0AABF00EBC250524218438F
:1038E000BCBFD0401843704792F0000F81F4000134
:1038F00006BF80F400000132013BB5E74FEA410307
:103900007FEA226C18BF7FEA236C21D092EA030F72
:1039100004D092F0000F08BF0846704790EA010FEC
:103920001CBF0020704712F07F4F04D1400028BF19
:1039300040F00040704712F100723CBF00F50000FB
:10394000704700F0004343F0FE4040F40000704731
:103950007FEA226216BF08467FEA236301464202DD
:1039600006BF5FEA412390EA010F40F480007047F0
:103970004FF0000304E000BF10F0004348BF404296
:103980005FEA000C08BF704743F0964301464FF0D2
:1039900000001CE050EA010208BF70474FF000032E
:1039A0000AE000BF50EA010208BF704711F000436F
:1039B00002D5404261EB41015FEA010C02BF84463F
:1039C0000146002043F0B64308BFA3F18053A3F59E
:1039D0000003BCFA8CF2083AA3EBC25310DB01FAE5
:1039E00002FC634400FA02FCC2F12002BCF1004F69
:1039F00020FA02F243EB020008BF20F001007047FA
:103A000002F1200201FA02FCC2F1200250EA4C004D
:103A100021FA02F243EB020008BF20EADC70704793
:103A20004FF0FF0C1CEAD0521EBF1CEAD15392EAA1
:103A30000C0F93EA0C0F6FD01A4480EA010C40027D
:103A400018BF5FEA41211ED04FF0006343EA5010D7
:103A500043EA5111A0FB01310CF00040B1F5000F19
:103A60003EBF490041EAD3715B0040EA010062F1C8
:103A70007F02FD2A1DD8B3F1004F40EBC25008BFB2
:103A800020F00100704790F0000F0CF0004C08BFD0
:103A900049024CEA502040EA51207F3AC2BFD2F19D
:103AA000FF0340EAC250704740F400004FF00003AB
:103AB000013A5DDC12F1190FDCBF00F000407047E5
:103AC000C2F10002410021FA02F1C2F1200200FA23
:103AD00002FC5FEA310040F1000053EA4C0308BFEA
:103AE00020EADC70704792F0000F00F0004C02BF3B
:103AF000400010F4000F013AF9D040EA0C0093F0B6
:103B0000000F01F0004C02BF490011F4000F013B0F
:103B1000F9D041EA0C018FE70CEAD15392EA0C0F7D
:103B200018BF93EA0C0F0AD030F0004C18BF31F0E8
:103B3000004CD8D180EA010000F00040704790F0BE
:103B4000000F17BF90F0004F084691F0000F91F062
:103B5000004F14D092EA0C0F01D142020FD193EA28
:103B60000C0F03D14B0218BF084608D180EA0100B0
:103B700000F0004040F0FE4040F40000704740F08C
:103B8000FE4040F4400070474FF0FF0C1CEAD0525A
:103B90001EBF1CEAD15392EA0C0F93EA0C0F69D0B6
:103BA000A2EB030280EA010C49024FEA402037D021
:103BB0004FF0805343EA111143EA10130CF0004018
:103BC0008B4238BF5B0042F17D024FF4000C8B4208
:103BD00024BF5B1A40EA0C00B3EB510F24BFA3EBE8
:103BE000510340EA5C00B3EB910F24BFA3EB9103B8
:103BF00040EA9C00B3EBD10F24BFA3EBD10340EA12
:103C0000DC001B0118BF5FEA1C1CE0D1FD2A3FF657
:103C100050AF8B4240EBC25008BF20F0010070470C
:103C20000CF0004C4CEA50207F32C2BFD2F1FF03AF
:103C300040EAC250704740F400004FF00003013AE0
:103C400037E792F0000F00F0004C02BF400010F484
:103C5000000F013AF9D040EA0C0093F0000F01F098
:103C6000004C02BF490011F4000F013BF9D041EABA
:103C70000C0195E70CEAD15392EA0C0F08D14202ED
:103C80007FF47DAF93EA0C0F7FF470AF084676E7C0
:103C900093EA0C0F04D14B023FF44CAF08466EE799
:103CA00030F0004C18BF31F0004CCAD130F0004267
:103CB0007FF45CAF31F000437FF43CAF5FE700BFBF
:103CC0004FEA4002B2F1FE4F0FD34FF09E03B3EB29
:103CD00012620DD94FEA002343F0004310F0004F69
:103CE00023FA02F018BF404270474FF000007047BF
:103CF00012F1610F01D1420205D110F0004008BF5E
:103D00006FF0004070474FF00000704725642C2092
:103D10002564202C25640D0A00000000737464697A
:103D20006F2E633A20696E637265617365204D4141
:103D3000585F535452494E475F53495A450A0D0044
:103D4000FFFF0000FFFF000000C0120001000000A4
:103D500000002000B86002400C3C00402F00000032
:103D60000000002800000024000040200000002285
:103D70000000002101000000000000000102030417
:103D8000010203040607080900000000000000000B
:103D90000100000000000000000000000000000022
:103DA0000000000000000000000000000000000013
:103DB0000000000000000000000000000000000003
:103DC00000000000000000000000000000000000F3
:103DD00000000000000000000000000000000000E3
:103DE00000000000000000000000000000000000D3
:103DF00000000000000000000000000000000000C3
:103E000000000000000000000000000000000000B2
:103E100000000000000000000000000000000000A2
:103E20000000000000000000000000000000000092
:103E30000000000000000000000000000000000082
:103E40000000000000000000000000000000000072
:103E50000000000000000000000000000000000062
:103E60000000000000000000000000000000000052
:103E7000000000000000000048000020007A030A53
:103E8000000000000000000001020304060708090A
:043E9000001000001E
:0400000508000000EF
:00000001FF
